:020000040800F2
:1000000000500020D9130008D1120008D3120008B4
:10001000D5120008D7120008D9120008000000000D
:10002000000000000000000000000000DB120008DB
:10003000DD12000800000000DF120008E1120008D5
:1000400021140008211400082114000821140008BC
:1000500021140008211400082114000821140008AC
:10006000211400082114000821140008211400089C
:10007000211400082114000821140008211400088C
:10008000211400082114000821140008211400087C
:10009000211400082114000821140008211400086C
:1000A000211400082114000821140008211400085C
:1000B000211400082114000821140008211400084C
:1000C000211400082114000821140008211400083C
:1000D000211400082114000821140008211400082C
:1000E000E512000821140008211400080000000097
:1000F0000000000000000000000000000000000000
:0C01000000000000000000005FF808F1A3
:10010C0010B5054C237833B9044B13B10448AFF345
:10011C0000800123237010BD70000020000000003F
:10012C00541D000808B5034B1BB103490348AFF33A
:10013C00008008BD0000000074000020541D000861
:10014C0038B50E4B054618784FF47A73B3FBF0F3C1
:10015C000B4A1068B0FBF3F000F09EF8044658B957
:10016C000F2D09D8024629464FF0FF3000F054F805
:10017C00044B20461D6038BD012038BD0000002016
:10018C000800002004000020074A08B5136803206B
:10019C0043F01003136000F02DF80020FFF7D0FFA0
:1001AC0001F06EF8002008BD00200240034A044B09
:1001BC0011681B780B441360704700BF9800002037
:1001CC0000000020014B1868704700BF9800002009
:1001DC0038B50446FFF7F6FF0546631C1EBF044BFB
:1001EC001B78E418FFF7EEFF401B8442FAD838BDA9
:1001FC0000000020074A0002D36800F4E06023F4FA
:10020C00E0631B041B0C43F0BF6343F40033034354
:10021C00D360704700ED00E0174B30B5DC68C4F3D9
:10022C000224C4F10703251D042B28BF0423062D2B
:10023C004FF0010598BF002405FA03F303F1FF33D7
:10024C0088BF033C1940A14005FA04F4013C22404C
:10025C00002842EA01024FEA0212AFBF00F16040EF
:10026C00064B00F00F00D2B2A5BFD2B200F5614030
:10027C001A5480F8002330BD00ED00E014ED00E0CE
:10028C000123420900F01F0003FA00F0014B43F870
:10029C002200704700E100E00138B0F1807F0AD203
:1002AC00F021064B064A586082F8231000200722E2
:1002BC0098601A6070470120704700BF10E000E0A2
:1002CC0000ED00E02DE9F74F00221646654BDFF8F4
:1002DC00A4E1DFF8A4C14FF001080C6808FA06F895
:1002EC0008EA0404A0457FD14D68122D00F0AF80C0
:1002FC0000F28880022D00F0A7807CD8002D00F041
:10030C008E80012D00F09E804FF00F09FF2C93BFC3
:10031C00824606F18045083DD0F800B092BFB5008A
:10032C00D0F804B0AD0009FA05F82BEA080802FA77
:10033C0005F588BF00F1040A48EA0505CAF8005023
:10034C00D1F804A01AF0805F4ED0474D464FAD69EE
:10035C0026F0030845F00105BD61BD6908F1804830
:10036C0005F00105019508F5803806F0030B019D99
:10037C004FEA8B0BD8F8085009FA0BF925EA090952
:10038C003A4DA84268D005F58065A84266D005F5BF
:10039C008065A84264D005F58065A8420CBF032592
:1003AC00042505FA0BF545EA0905C8F808501D683F
:1003BC001AF4803F14BF2543A5431D605D681AF4F1
:1003CC00003F14BF2543A5435D609D681AF4801F50
:1003DC0014BF2543A5439D60DD681AF4001F14BFAC
:1003EC002C4325EA0404DC600136102E7FF473AF35
:1003FC0003B0BDE8F08F032D22D0112D84D1CA6833
:10040C00043281E71A4FBD4209D012D8DFF86C9044
:10041C004D4504D009F580394D457FF475AF8A6898
:10042C00C2B1012A0CBFC0F81080C0F81480082299
:10043C006AE77545F3D06545F1D0DFF84490EBE7FA
:10044C00002261E7CA685FE7CA6808325CE7CA68DD
:10045C000C3259E7042257E70025A2E70125A0E753
:10046C0002259EE7000401400010024000080140F4
:10047C00000021100000311000003210000011109B
:10048C00000022100AB1016170470904FBE77047B4
:10049C0008B5044B5969014202D05861FFF7F7FFC8
:1004AC0008BD00BF000401400268536913F4806367
:1004BC000DD06FF480635361042320220364002366
:1004CC00036380F83C3080F83D20012070471846CB
:1004DC0070472DE9F843044617469946C1F307487F
:1004EC008EB22568B8F1010F0CBF6B69AB6936EAA7
:1004FC00030314BF0120002008B9BDE8F8836B6921
:10050C005A0512D52B68202243F400732B606FF42C
:10051C0080636B610423236400230120236384F82C
:10052C003C3084F83D20BDE8F8837B1CD9D04FB912
:10053C0000232022236384F83C3084F83D200320E0
:10054C00BDE8F883FFF73EFEA0EB09008742C8D256
:10055C00EEE72DE9F843044690461F46089EC1F38A
:10056C0007498DB22368B9F1010F0CBF5B699B6918
:10057C0035EA03030CBF01230023434502D00020BE
:10058C00BDE8F8837B1CEDD05FB9002320222363E8
:10059C0084F83C3084F83D20032084F83E30BDE8DC
:1005AC00F883FFF70FFE801B8742DBD2EDE770B5B7
:1005BC0004460D46164623685B691B0601D50020D0
:1005CC0070BD2046FFF770FFA8B96A1CF3D065B95F
:1005DC00236C202243F02003236400230320236395
:1005EC0084F83C3084F83D2070BDFFF7EBFD801B98
:1005FC008542E0D2ECE7012070BD70B504460D4693
:10060C00164623685B695B0701D5002070BD204648
:10061C00FFF74AFFA8B96A1CF3D065B9236C2022F6
:10062C0043F02003236400230320236384F83C302D
:10063C0084F83D2070BDFFF7C5FD801B8542E0D2DC
:10064C00ECE7012070BD000038B5044608B9012064
:10065C0038BD90F83D3003F0FF021BB980F83C2008
:10066C0000F006FD2423226884F83D30136823F043
:10067C000103136000F068FC63682F4A934230D882
:10068C002E4A9042E3D92E4A2168B0FBF2F24A601E
:10069C0001320A62284A0138934232D85B00B0FB1F
:1006AC00F3F0431CC3F30B03042B38BF0423CB61BF
:1006BC00226AE369002013430B60E2682369134349
:1006CC008B60A26963691343CB600B6843F0010331
:1006DC000B602023206484F83D30206384F83E00B6
:1006EC0038BD184A9042B2D9154D4FF49672B0FBF2
:1006FC00F5F521686A434D604FF47A75B2FBF5F25B
:10070C00C6E7A26852B903EB4303B0FBF3F0431CFA
:10071C00C3F30B036BB143F40043C8E719225343F3
:10072C00B0FBF3F0431CC3F30B0313B143F440438E
:10073C00BDE70123BBE700BFA08601007F841E003C
:10074C0040420F00FF083D002DE9FF4104461F46C3
:10075C000D469046FFF736FD94F83D300646202BAB
:10076C0004D00225284604B0BDE8F081009019237E
:10077C0001225D492046FFF7ECFE0028F1D194F8E8
:10078C003C30012BEDD0012384F83C3023681A68EF
:10079C00D2075EBF1A6842F001021A601A6822F48E
:1007AC0000621A60212284F83D20102284F83E2039
:1007BC0000222264A2F580326785E262628DC4F861
:1007CC0024802285E26A042A04D0012A02D012F580
:1007DC00803F04D11A6842F480721A6002E0226BE6
:1007EC00122AF7D000960A9B00224FF001112046E6
:1007FC00FFF7AFFE28BB23692268B3F5804F12D1F7
:10080C0005F0FE05156133460A9A38492046FFF774
:10081C0060FE0546A0B9236803905A6903929B6950
:10082C000393039B50E0EB1103F0060343F0F0033A
:10083C0013612F4933460A9A2046FFF74AFE48B106
:10084C00236C236C042B4FF0000307D184F83C304D
:10085C00012587E72368EDB21D61D4E784F83C30AD
:10086C0003257FE732460A992046FFF7A0FE40B1E8
:10087C00236C042BF4D12268136843F400731360C7
:10088C00E6E7616A20684B1C63620B78228D03617A
:10089C00638D013B9BB263854769531E9BB27F07F7
:1008AC0023850AD54BB18B1C63624B78023A0361EA
:1008BC00638D2285013B9BB2638532460A992046A3
:1008CC00FFF79BFE0028D3D1238D002BCAD12168C2
:1008DC000A6842F400720A60202284F83C3084F8E2
:1008EC003D2084F83E303DE702001000020001007C
:1008FC00080001002DE9F04F044685B09846894662
:10090C009246FFF75FFC94F83D300646202B03D04F
:10091C00022005B0BDE8F08F0090192301224B494D
:10092C002046FFF716FE0028F2D194F83C30012B3C
:10093C00EED0012384F83C30236800251A68DFF8D8
:10094C000CB1D20758BF1A6809F0FE095CBF42F01F
:10095C0001021A601A6822F400621A60242384F8D7
:10096C003D303B4B2564E36222684FF00111136864
:10097C00204643F480731360009643460022FFF731
:10098C00E8FD08B10320C4E72368A027C3F8109042
:10099C00FFF718FC0646236859695A6994F83D30EC
:1009AC00C1F34001C2F38022DBB211B90AB9A02B0A
:1009BC0020D12027236884F83D705A6912F0020F69
:1009CC001A6842F400721A602AD0002203925A6903
:1009DC001E4903929B6901220393039B00961923E2
:1009EC002046FFF7B6FD0028CCD184F83D7084F882
:1009FC003C008EE7B8F1000F0CD184F83D702368F1
:100A0C0059695A6994F83D30C1F34001C2F3802210
:100A1C00DBB2CAE7FFF7D6FB801B8045EDD3EEE7D0
:100A2C006FF4806259465A612046009619230122C0
:100A3C00FFF78FFD0028A5D10135AA4594D884F87D
:100A4C003C0084F83D70012063E700BF02001000F9
:100A5C000000FFFF03682DE9F341DB07054610D4C6
:100A6C002B689F075ED42B68190700F195802B68C3
:100A7C005A0700F1BF80EA69002A40F02D8100205E
:100A8C0014E0904C636803F00C03042B07D06368EC
:100A9C0003F00C03082B0CD16368DE0309D5236823
:100AAC009C03DDD56B68002BDAD1012002B0BDE8C8
:100ABC00F0816B68B3F5803F10D1236843F4803329
:100ACC002360FFF77FFB064623689803C8D4FFF723
:100ADC0079FB801B6428F7D90320E7E79BB92368CF
:100AEC0023F480332360236823F480232360FFF7EF
:100AFC0069FB064623689903B2D5FFF763FB801B9D
:100B0C006428F7D9E8E7B3F5A02F236803D143F4A1
:100B1C0080232360D1E723F480332360236823F4FC
:100B2C008023CDE7674C636813F00C0F07D0636824
:100B3C0003F00C03082B10D16368DA030DD423687F
:100B4C009B0702D52B69012BAFD123686A6923F06F
:100B5C00F80343EAC203236085E72A695A4B6AB15A
:100B6C0001221A60FFF72EFB064623689F07ECD480
:100B7C00FFF728FB801B0228F7D9ADE71A60FFF7B7
:100B8C0021FB0646236898077FF56DAFFFF71AFB2C
:100B9C00801B0228F6D99FE7AA694A4C4B4BDAB165
:100BAC0001221A60FFF70EFB0646636A9B070DD500
:100BBC004FF4FA52464B1B68B3FBF2F3019300BFA0
:100BCC00019B5A1E0192002BF9D150E7FFF7FAFA5C
:100BDC00801B0228E9D97FE71A60FFF7F3FA064673
:100BEC00636A9F077FF543AFFFF7ECFA801B02287F
:100BFC00F6D971E7334CE369D80024D40127E369B3
:100C0C0043F08053E361E36903F080530093009B4E
:100C1C00304E3368D90518D5EB68012B26D1236AE1
:100C2C0043F001032362FFF7CDFA41F28836804688
:100C3C00236A9B073FD5002F3FF41DAFE36923F0D8
:100C4C008053E36117E70027E2E7336843F48073CE
:100C5C003360FFF7B7FA80463368DA05DCD4FFF768
:100C6C00B1FAA0EB08006428F6D935E7ABB9236AD2
:100C7C0041F2883823F001032362236A23F0040332
:100C8C002362FFF79FFA0646236A9807D3D5FFF72E
:100C9C0099FA801B4045F7D91EE7052B236A03D12F
:100CAC0043F004032362BAE723F001032362236AAF
:100CBC0023F00403B6E7FFF785FAA0EB0800B04277
:100CCC00B6D909E7001002400000424280044242BB
:100CDC000800002000700040224C636803F00C03F5
:100CEC00082B3FF4E2AE00231F4E022A33602BD1B7
:100CFC00FFF768FA0746236899011FD42B6AB3F5EE
:100D0C00803F05D16268A96822F400320A43626010
:100D1C00696A62680B4322F4741213436360012303
:100D2C003360FFF74FFA054623689A013FF5A7AEEB
:100D3C00FFF748FA401B0228F6D9CDE6FFF742FA36
:100D4C00C01B0228D7D9C7E6FFF73CFA0546236833
:100D5C009B017FF594AEFFF735FA401B0228F6D9BC
:100D6C00BAE600BF001002406000424230B5194B99
:100D7C0087B002AC03F11005224618685968083395
:100D8C0003C2AB421446F7D101238DF80430022381
:100D9C0011498DF805304B6803F00C02082A17D165
:100DAC00C3F3834206A80244DB0312F8102C0CD5C3
:100DBC004B680A48C3F34043504306AA134413F844
:100DCC00143CB0FBF3F007B030BD05485043FAE7D4
:100DDC000248F8E76C1D00080010024000127A006F
:100DEC0000093D00544A2DE9F0411368054603F013
:100DFC0007038B420E462AD329688C0734D4CA07C2
:100E0C0047D44D4A136803F007039E42C0F082801A
:100E1C002A684A4C12F0040F40F08780130706D55D
:100E2C0063682A6923F4605343EAC2036360FFF7E3
:100E3C009DFF6368424AC3F30313D35CD840414B14
:100E4C0018600020FFF77CF90020BDE8F0811368E2
:100E5C0023F007030B431360136803F00703994255
:100E6C00CAD00120BDE8F081344B11F0040F1EBF35
:100E7C005A6842F4E0625A60080742BF5A6842F46A
:100E8C0060525A605A68A86822F0F00202435A6015
:100E9C00B5E76A68294C012A23681CD113F4003F7A
:100EAC00DFD0636841F2883823F003031343636097
:100EBC00FFF788F96B680746012B14D1636803F0C0
:100ECC000C03042B9DD0FFF77DF9C01B4045F5D9D1
:100EDC000320BDE8F081022A02D113F0007FDFE786
:100EEC0013F0020FDCE7022B0FD1636803F00C0345
:100EFC00082B86D0FFF766F9C01B4045F5D9E7E70C
:100F0C00FFF760F9C01B4045E2D8636813F00C0F83
:100F1C00F6D176E7136823F00703334313601368A5
:100F2C0003F007039E429CD172E76368E96823F4DF
:100F3C00E0630B43636071E7002002400010024045
:100F4C00C01D000808000020044B054A5B68C3F371
:100F5C000223D35C034A1068D8407047001002404B
:100F6C00D01D000808000020102270B588B00DEBD1
:100F7C000200002100F074FA294B2A4D9A69284688
:100F8C0042F010029A619A69202102F0100200923C
:100F9C00009A9A69002442F020029A619A6902260A
:100FAC0002F020020192019A9A6942F004029A61BD
:100FBC009A6902F004020292029A9A6942F00802BB
:100FCC009A619B69002203F008030393039BFFF7CC
:100FDC0059FA4FF400530493134B04A91348059387
:100FEC000694FFF76FF90C2304A928460493059681
:100FFC000796FFF767F920230493012304A92846D9
:10100C00059306940796FFF75DF9224621462820A2
:10101C00FFF702F92820FFF733F908B070BD00BFC5
:10102C000010024000080140000021100010014097
:10103C0008B50C480C4BDFF834E04FF4804280E8E4
:10104C000840002302618360C36043618361C36114
:10105C000362FFF7F9FA18B1BDE8084000F00EB9C9
:10106C0008BD00BF9C00002000540040A086010079
:10107C0010B5044686B01022002102A800F0F0F949
:10108C002268154B9A4224D1144C02A9A369144826
:10109C0043F00803A361A36903F008030093009BCA
:1010AC004FF4407302931223039303230593FFF72A
:1010BC0009F90C4A536843F0E06343F002035360B0
:1010CC00E36943F40013E361E36903F40013019350
:1010DC00019B06B010BD00BF005400400010024040
:1010EC00000C0140000001407FB50E461446054639
:1010FC004FF0FF33012229461548FFF7FBFB002870
:10110C00F6D126F00F03234344EA061443F00C02F5
:10111C00E4B243F008038DF80D3044F00C038DF865
:10112C000E304FF0FF338DF80C20009303AA0423EC
:10113C00294644F0080406488DF80F40FFF704FBDD
:10114C0004460520FFF744F8204604B070BD00BFEC
:10115C009C0000200022FFF7C7BF0122FFF7C4BF8D
:10116C0010B504463021FFF7F5FF20463021FFF77C
:10117C00F1FF20463021FFF7EDFF20462021FFF73D
:10118C00E9FF20463021FFF7E5FF20460221FFF75B
:10119C00E1FF20460C21FFF7DDFF2046BDE81040A3
:1011AC000121FFF7D7BF38B505464C1E14F8011FB7
:1011BC0001B938BD2846FFF7D0FFF7E708B50C4852
:1011CC0000F0B2F94E20FFF7CBFF80214E20FFF745
:1011DC00C1FF08494E20FFF7E6FFC0214E20FFF764
:1011EC00B9FFBDE8084004494E20FFF7DCBF00BF43
:1011FC007C1D0008901D0008A01D00086420FEF74F
:10120C00E7BF10B590B02822002106A800F028F9FD
:10121C001422002101A800F023F901230A931023C2
:10122C0002240B934FF4601306A80F9306940D94AD
:10123C00FFF710FC0F234FF480620193002321462B
:10124C0001A80294039304920593FFF7CBFD10B011
:10125C0010BD000008B5FEF797FFFFF7D2FFFFF7B0
:10126C0083FEFFF7E5FEFFF7A9FF034CFFF7C6FF70
:10127C00204600F059F9F9E7B11D0008704700004D
:10128C000E4B82B09A6942F001029A619A6902F09F
:10129C0001020092009ADA6942F08052DA61DB694D
:1012AC00074A03F080530193019B536823F0E063DA
:1012BC0043F00073536002B0704700BF001002404F
:1012CC00000001407047FEE7FEE7FEE7FEE77047CF
:1012DC0070477047FEF76ABF4FF40050FFF7D8B85D
:1012EC0010B500234FF06044934201DB104610BD53
:1012FC00D4F8800EC00703D5D4F8000EC00702D472
:10130C000133F1E700BF20680028FBD0C85C2070D7
:10131C00F6E70000044B0246196809B90349196045
:10132C00186802441A6070478C000020F4000020FA
:10133C005822024B4FF0FF301A607047F00000202B
:10134C005822024B4FF0FF301A607047F00000201B
:10135C005822024B00201A60704700BFF00000209A
:10136C005822024B4FF0FF301A607047F0000020FB
:10137C005822024B4FF0FF301A607047F0000020EB
:10138C000F4B1A6842F001021A6059680D4A0A4064
:10139C005A601A6822F0847222F480321A601A6839
:1013AC0022F480221A605A6822F4FE025A604FF42A
:1013BC001F029A604FF00062034B9A60704700BFA7
:1013CC00001002400000FFF800ED00E0002103E0F7
:1013DC000B4B5B58435004310A480B4B42189A4252
:1013EC00F6D30A4A02E0002342F8043B084B9A4227
:1013FC00F9D3FFF7C5FF00F00FF8FFF72BFF70478D
:10140C00441E000800000020700000207000002026
:10141C00F4000020FEE7000070B500250C4E0D4CCA
:10142C00A41BA410A54209D100F08EFC00250A4E85
:10143C000A4CA41BA410A54205D170BD56F825304A
:10144C0098470135EEE756F8253098470135F2E715
:10145C003C1E00083C1E00083C1E0008401E0008F4
:10146C0003460244934200D1704703F8011BF9E78D
:10147C0070B50E46054618B183690BB900F00EFA2B
:10148C00AB69AC6813B9284600F008FA234B9C42B0
:10149C0017D16C68A3891B071DD52369DBB1013EED
:1014AC00A36816F8011F013BA360E9B9002B2EDAE3
:1014BC0022460A21284600F03FF8013011D00A20BC
:1014CC0070BD174B9C4201D1AC68E3E7154B9C42B5
:1014DC0008BFEC68DEE72146284600F07FF80028BC
:1014EC00DDD04FF0FF3070BD002B04DAA2699342BF
:1014FC0006DB0A2904D023685A1C22601970CFE736
:10150C002246284600F018F80130C9D1E9E70A2034
:10151C0023685A1C2260187070BD00BFF81D0008AB
:10152C00181E0008D81D0008024B01461868FFF76A
:10153C009FBF00BF0C000020F8B50E4614460546B0
:10154C0018B183690BB900F0A9F9214B9C422AD13F
:10155C006C68A369A360A3891A072ED5236963B3AA
:10156C0023692068F6B2C01A63693746984204DBD7
:10157C002146284600F028F928BBA3680130013B1E
:10158C00A36023685A1C22601E706369984204D0C1
:10159C00A389DB0719D50A2E17D12146284600F05E
:1015AC0013F990B10FE00B4B9C4201D1AC68D0E722
:1015BC00094B9C4208BFEC68CBE72146284600F05B
:1015CC000DF80028CCD04FF0FF373846F8BD00BFDF
:1015DC00F81D0008181E0008D81D0008324B70B505
:1015EC001D6806460C4625B1AB6913B9284600F0B8
:1015FC0055F92E4B9C420FD16C68B4F90C309AB251
:10160C0015072CD4D00611D40922326043F04003C4
:10161C00A3814FF0FF3070BD254B9C4201D1AC68CB
:10162C00EBE7244B9C4208BFEC68E6E7510712D568
:10163C00616B41B104F14403994202D0304600F091
:10164C001BFA00236363A38923F02403A3810023E3
:10165C00636023692360A38943F00803A381236992
:10166C004BB9A38903F42073B3F5007F03D0214653
:10167C00304600F0C1F9A28912F001030CD000230E
:10168C00A36063695B42A361236953B9B4F90C305D
:10169C0013F08000BAD170BD920758BF6369A36084
:1016AC00F2E70020F7E700BF0C000020F81D00084F
:1016BC00181E0008D81D00088A892DE9F04105463E
:1016CC0010070C465AD44B68002B05DC0B6C002B16
:1016DC0002DC0020BDE8F081E66A002EF9D0002380
:1016EC0012F480522F682B6033D0606DA3895A0797
:1016FC0005D56368C01A636B0BB1236CC01A002349
:10170C000246E66A216A2846B047431CA38906D1E3
:10171C0029681D294BD82B4ACA40D60747D5002229
:10172C0062602269D904226004D5421C01D12B6865
:10173C0003B96065616B2F600029CAD004F14403C2
:10174C00994202D0284600F097F900206063BDE86A
:10175C00F081216A01232846B047411CC6D12B6871
:10176C00002BC3D01D2B01D0162B01D12F60B0E75D
:10177C00A38943F04003A381BDE8F0810F69002FDA
:10178C00A7D0930718BF00230E6808BF4B69A6EBC0
:10179C0007080F608B60B8F1000F9ADD43463A469C
:1017AC00216A2846A66AB047002807DCA38943F0C3
:1017BC004003A3814FF0FF30BDE8F0810744A8EB54
:1017CC000008E8E70100402038B50B6905460C46D7
:1017DC00DBB118B183690BB900F060F80C4B9C427B
:1017EC0009D16C68B4F90C307BB121462846BDE8B0
:1017FC003840FFF761BF074B9C4201D1AC68F1E761
:10180C00054B9C4208BFEC68ECE7002038BD00BFDC
:10181C00F81D0008181E0008D81D0008014900F02A
:10182C00A9B800BFD5170008002310B50446036003
:10183C004360836081814366C2810361436183613C
:10184C00194608225C30FFF70BFE054B24626362DD
:10185C00044BA362044BE362044B236310BD00BF33
:10186C00F91B00081B1C0008531C0008771C0008FF
:10187C0070B568254A1E55430E4605F1740100F0FB
:10188C0047F9044640B1002180E842000C30A060CA
:10189C0005F16802FFF7E4FD204670BD836910B5C1
:1018AC00044633BB8364C3640365124B124A1B6842
:1018BC008262984204BF0123836100F01FF86060CC
:1018CC00204600F01BF8A060204600F017F800221C
:1018DC00E06004216068FFF7A7FF01220921A068DE
:1018EC00FFF7A2FF02221221E068FFF79DFF012300
:1018FC00A36110BD381E000829180008F8B51C4B50
:10190C0007461E68B36913B93046FFF7C7FF483660
:10191C00B4687368013B03D5336833B13668F7E7B5
:10192C00B4F90C506DB16834F4E704213846FFF774
:10193C009FFF30600028F1D10C2304463B60204609
:10194C00F8BD4FF6FF73E38101236566A381256023
:10195C00A560656025616561A5610822294604F1D1
:10196C005C00FFF77DFD6563A563A564E564E6E7B0
:10197C00381E00082DE9F84380468946002600F100
:10198C00480414B93046BDE8F883A5686768013F80
:10199C0001D52468F5E7AB89012B07D9B5F90E30D1
:1019AC00013303D029464046C84706436835EEE765
:1019BC0070B50E46B1F90E1090B0002914461D46B4
:1019CC0007DA00232B60B3891A0610D44FF4806316
:1019DC000EE001AA00F070F90028F2DB029A02F482
:1019EC007042A2F500535A425A412A60EEE7402356
:1019FC000020236010B070BD8B8973B59D0706461F
:101A0C000C4607D504F1470323602361012363616E
:101A1C0002B070BD01AB6A46FFF7CAFF00990546DC
:101A2C00304600F075F848B9B4F90C309A05EFD48B
:101A3C0023F0030343F00203A381E3E70D4BB362EE
:101A4C00A389206043F08003A381009B2061636124
:101A5C00019B5BB1B4F90E10304600F03FF928B190
:101A6C00A38923F0030343F00103A381A3891D433E
:101A7C00A581CDE72918000838B50546002943D0C3
:101A8C0051F8043C0C1F002BB8BFE41800F048F9C7
:101A9C001E4A1368104633B9636014602846BDE8CB
:101AAC00384000F03EB9A3420BD92168621893422A
:101ABC0001BF1A685B685218226063600460EDE72E
:101ACC0013465A680AB1A242FAD919685818A042AA
:101ADC000BD120680144581882421960DED110687D
:101AEC005268014419605A60D8E702D90C232B6064
:101AFC00D4E7206821188A4201BF1168526809187E
:101B0C00216062605C60C9E738BD00BF90000020B6
:101B1C0070B5CD1C25F0030508350C2D38BF0C25F0
:101B2C00002D064601DBA94203D90C2333600020AB
:101B3C0070BD00F0F5F8234A1468214691B9224C87
:101B4C0023681BB9304600F041F820602946304626
:101B5C0000F03CF8431C26D10C233046336000F0D7
:101B6C00E0F8E4E70B685B1B1AD40B2B0FD90B6066
:101B7C00CC18CD50304600F0D4F804F10B00231DE6
:101B8C0020F00700C31A1BD05A42E25070BD8C42A1
:101B9C000BBF63684B681360636018BF0C46E9E7C2
:101BAC000C464968CAE7C41C24F00304A04205D0C3
:101BBC00211A304600F00AF80130CDD02560D9E763
:101BCC0070BD00BF900000209400002038B50023A9
:101BDC00054C054608462360FFF79CFB431C02D1CD
:101BEC00236803B12B6038BDF000002010B50C4603
:101BFC00B1F90E1000F096F80028ABBF636DA38905
:101C0C001B1823F48053ACBF6365A38110BD2DE971
:101C1C00F0411F468B890546DB050C46164605D55B
:101C2C0002230022B1F90E1000F068F8A3893246A5
:101C3C0023F48053A381B4F90E103B462846BDE82B
:101C4C00F04100F017B810B50C46B1F90E1000F0C9
:101C5C0055F8431CA38915BF606523F4805343F4E6
:101C6C008053A38118BFA38110BDB1F90E1000F0F1
:101C7C0013B8000038B50546084611460022054C3D
:101C8C0022601A46FFF72CFB431C02D1236803B1D8
:101C9C002B6038BDF000002038B50023054C0546FC
:101CAC0008462360FFF744FB431C02D1236803B1B1
:101CBC002B6038BDF000002038B50023064C0546DB
:101CCC00084611462360FFF73BFB431C02D12368F7
:101CDC0003B12B6038BD00BFF000002038B50023E5
:101CEC00054C054608462360FFF732FB431C02D126
:101CFC00236803B12B6038BDF000002038B50546D1
:101D0C00084611460022054C22601A46FFF728FBB4
:101D1C00431C02D1236803B12B6038BDF0000020B6
:101D2C007047704738B50546084611460022054CE9
:101D3C0022601A46FFF71CFB431C02D1236803B137
:101D4C002B6038BDF0000020F8B500BFF8BC08BC13
:101D5C009E467047F8B500BFF8BC08BC9E4670475D
:101D6C0002030405060708090A0B0C0D0E0F1010D0
:101D7C005B20494E464F205D20696E697420737458
:101D8C0061727400205573696E67203136303220D1
:101D9C004C434400303132333435363738392B2DFF
:101DAC002A2F3B3A005B20494E464F205D20776836
:101DBC00696C6500000000000000000001020304D3
:101DCC0006070809000000000102030400000000DF
:101DDC0000000000000000000000000000000000F7
:101DEC0000000000000000000000000000000000E7
:101DFC0000000000000000000000000000000000D7
:101E0C0000000000000000000000000000000000C6
:101E1C0000000000000000000000000000000000B6
:101E2C000000000000000000000000001000002076
:041E3C003101000868
:041E40000D01000888
:101E4400010000001000000000A24A04100000205D
:101E540000000000F81D0008181E0008D81D000826
:101E6400000000000000000000000000000000006E
:101E7400000000000000000000000000000000005E
:101E8400000000000000000000000000000000004E
:101E9400000000000000000000000000000000003E
:101EA400000000000000000000000000000000002E
:04000005080013D903
:00000001FF
